:02000002D0002C
:1040000000400D00D49F0D00000005000D000501CB
:0840100004014601000000005C
:10401800E0970D0009480A49884208B505D0094AC1
:10402800824202D0121A03F075FD0748074A0021A0
:10403800121A03F07AFD014808BD00BFD8D5032045
:10404800F09E0D0094D6032094D60320F0E70320B9
:1040580070B502F069F9074C074BE41AA40800256B
:104068001E46A54204D056F8253098470135F8E792
:1040780070BD00BFE89E0D00A49E0D0001F076B84B
:1040880008B500F073FFBDE8084002F01BB901F065
:10409800FBBA01F001BB01F0FFBA0078B0FA80F07A
:1040A80040097047012303707047000070B590F80D
:1040B8004A5004460DB1002070BDC06C03681B69EE
:1040C80098470028F7D0E06C03685B699847C0B24E
:1040D8000A28144B144A16D119781468C9B26554C1
:1040E800124D16681249134CAE4214BF0C600E6094
:1040F8004FF000011970104908BF14604FF0010417
:1041080018BF15600C7014681A78D2B2511CC9B265
:104118001970A0541B78772B82BF024B77221A7034
:1041280070BD00BF9CD6032098D603209DD60320DF
:1041380090D7032015D703208DD70320154A164999
:1041480000231370154AC3641370154A80F84A3067
:104158001160144A1449116080F83D3080F83C30F1
:1041680043710371C37083704370037080F83A30F1
:1041780080F8393080F8383080F83B30C38000232D
:1041880043630363C362836243620362C360836001
:10419800704700BF8DD703209DD603209CD60320EF
:1041A80098D6032090D7032015D7032038B50D469D
:1041B800FFF7C4FFC56438BD08B5C06C02F086FAC5
:1041C8000A20BDE8084002F05BB8C06C02F001BAF2
:1041D800014B1878704700BF8DD70320024B00228F
:1041E8001A70024B186870478DD7032090D70320A8
:1041F8002F290AD9392901D8303904E0A1F141031E
:10420800052B02D83739C8B2704700207047000024
:104218002DE9FF47044608460D4603F0C0FC071F7A
:10422800EB5D2A2B19D12E18204616F8031CFFF730
:10423800DFFF000182B216F8021C2046FFF7D8FF04
:10424800104480B202239F4204D9EA5C01335040F3
:10425800DBB2F8E708B1002012E3C349284603F0AF
:10426800CEFC30B9C149284603F0C9FC002800F04B
:104278008B812C21284603F060FC451C284603F05E
:104288002BFC51EC100B03F0D7FB07EE900AFCEE69
:10429800E77A42F2107117EE902A6426B2FBF1F326
:1042A800237001FB1323B3FBF6F36370B2FBF6F341
:1042B80006FB1322A27003F073F89FEDA91B41ECD3
:1042C800100B02F061FDAA4B002251EC100B03F019
:1042D800BBF803F091FB2C21E080284603F02DFC6D
:1042E80043782C2B804600F1010752D03946022230
:1042F8000DF1100901A803F06FFC4FF0000A01A8A6
:1043080009F80AAD03F0EFFB9A4D0222454308F184
:10431800030101A808F1060703F05EFC04223946F0
:10432800484603F059FC01A88DF80AA003F0DBFB0E
:1043380032235843032390FBF3F007EE900A2B181F
:10434800B8EEE77A23618C4B95FBF3F307EE903ACE
:10435800DFED8A6A9FED8A6AF8EEE77AE7EE267A59
:104368009FED887AC4ED027AC7EE876AFDEEE66AA9
:1043780016EE903A5E4307EE106AB8EEC77AF8EE8A
:10438800E66A77EEC77A87EE867A77EE266AC4ED14
:10439800066A2C21384603F0D0FB034601305A78D0
:1043A8002C2A12D0532A02BFD4ED067AF1EE677A8E
:1043B800C4ED067A5B784E2B05D0532B03D02C2BFB
:1043C8007FF449AF002384F838302C2103F0B5FB83
:1043D80043782C2B074600F1010650D031460322C2
:1043E80001A803F0F9FB4FF0000801A88DF8078039
:1043F80003F079FB5F4D02224543391D01A8FE1DDC
:1044080003F0EAFB042231460DF1060003F0E4FB59
:1044180001A88DF80A8003F066FB32235843032372
:1044280090FBF3F007EE900A2B18B8EEE77A636179
:10443800514B95FBF3F307EE903ADFED506A9FED91
:10444800506AF8EEE77A6423E7EE267ADFED4D6AE4
:10445800C4ED037A87EEA67ABDEEC77A17EE102A66
:10446800534306EE903AF8EEE66AB8EEC77A77EE6E
:10447800E67AC7EE866A36EE877A84ED077A2C21CB
:10448800304603F05AFB034601305A782C2A12D0E2
:10449800572A02BFD4ED077AF1EE677AC4ED077A9E
:1044A8005B78572B05D0452B03D02C2B7FF4D3AE4C
:1044B800002384F839302C2103F03FFB43782C2B60
:1044C80000F1010504D0284603F009FB84F83C00FC
:1044D80028462C2103F031FB43782C2B00F10105F1
:1044E80004D0284603F0FBFA84F83D0028462C2126
:1044F80003F023FB43782C2B00F1010507D0284655
:1045080003F0EAFA51EC100B03F096FA60632846C0
:104518002C2103F012FB43782C2B00F1010507D066
:10452800284603F0D9FA51EC100B03F085FA6062C3
:104538002C21284603F001FB2C21013003F0FDFA61
:1045480043782C2B00F09B81013003F0C5FA51EC25
:10455800100B03F071FA206291E100BFAFF3008005
:10456800000000000000F03FF4970D00FB970D00DD
:1045780000408F4080969800A08601009C53C93661
:10458800000070420000C842C149284603F037FBCA
:1045980030B9C049284603F032FB00283FF45BAE2F
:1045A8002C21284603F0C9FA451C284603F094FA42
:1045B80051EC100B03F040FA07EE900AFCEEE77A94
:1045C80042F2107117EE902AB2FBF1F3237001FB4F
:1045D80013236421B3FBF1F36370B2FBF1F301FB26
:1045E8001322A27002F0DCFE9FEDA71B41EC100B1A
:1045F80002F0CAFBA84B002251EC100B02F024FF7A
:1046080003F0FAF92C21E080284603F096FA437863
:10461800412B01D1012303E0562B7FF41CAE00236C
:1046280084F83B302C21013003F087FA43782C2B97
:10463800074600F1010651D0314602220DF110085B
:1046480001A803F0C9FA4FF0000901A808F80A9D6B
:1046580003F049FA914D02224543F91C01A8BE1DF9
:1046680003F0BAFA04223146404603F0B5FA01A82D
:104678008DF80A9003F037FA32235843032390FB4E
:10468800F3F007EE900A2B18B8EEE77A2361844B13
:1046980095FBF3F307EE903ADFED826A9FED826AAD
:1046A800F8EEE77A6423E7EE267ADFED806AC4ED58
:1046B800027A87EEA67ABDEEC77A17EE102A534320
:1046C80006EE903AF8EEE66AB8EEC77A77EEE67A42
:1046D800C7EE866A36EE877A84ED067A2C21304654
:1046E80003F02BFA034601305A782C2A12D0532AA9
:1046F80002BFD4ED067AF1EE677AC4ED067A5B78EC
:104708004E2B05D0532B03D02C2B7FF4A4AD0023C4
:1047180084F838302C2103F010FA43782C2B074604
:1047280000F1010650D03146032201A803F054FAE3
:104738004FF0000801A88DF8078003F0D4F9574D11
:1047480002224543391D01A8FE1D03F045FA042243
:1047580031460DF1060003F03FFA01A88DF80A80F2
:1047680003F0C1F932235843032390FBF3F007EE1B
:10477800900A2B18B8EEE77A6361494B95FBF3F37F
:1047880007EE903ADFED476A9FED476AF8EEE77A61
:104798006423E7EE267ADFED456AC4ED037A87EEF7
:1047A800A67ABDEEC77A17EE102A534306EE903A62
:1047B800F8EEE66AB8EEC77A77EEE67AC7EE866A6A
:1047C80036EE877A84ED077A2C21304603F0B5F966
:1047D800034601305A782C2A12D0572A02BFD4ED4A
:1047E800077AF1EE677AC4ED077A5B78572B05D024
:1047F800452B03D02C2B7FF42EAD002384F83930C1
:104808002C2103F09AF943782C2B00F1010507D0ED
:10481800284603F061F951EC100B03F00DF9A06282
:1048280028462C2103F089F943782C2B00F1010547
:1048380007D0284603F050F951EC100B03F0FCF8B0
:10484800E0622C21284603F078F943782C2B16D007
:10485800013003F041F951EC100B03F0CDF842F2AE
:104868001072B0FBF2F3637102FB13036422B3FB13
:10487800F2F32371B0FBF2F302FB1300E0700120A6
:1048880004B0BDE8F08700BF000000000000F03F62
:1048980002980D0009980D0000408F4080969800FE
:1048A800A08601009C53C936000070420000C8422F
:1048B80000F016BE704770477047000010B5074CEF
:1048C8001821204600F0F4F92046092100F0DFF90C
:1048D80020460121BDE8104000F0C1B994D703205B
:1048E800014B93ED020A7047C0D70320014B93EDAB
:1048F800030A7047C0D70320F7B50A4D0446A869D4
:1049080002F04EFD0646E8690F4602F049FD3246C0
:10491800CDE900013B462046034901F0F9FF204656
:1049280003B0F0BDC0D7032071980D0038B5012140
:10493800062002F09BF80021062002F0A8F84FF4A8
:1049480016511648164DFFF737FC16491348FFF75E
:104958003CFC4FF4FA7001F093FC13490F48FFF741
:1049680034FC4FF4FA7001F08BFC10490B48FFF748
:104978002CFC4FF4FA7001F083FC002401F0ACFE2B
:104988000368295D9B68013498470C2CF6D14FF4D5
:10499800FA70BDE8384001F073BC00BFC0D70320EF
:1049A800D8D5032077980D00A9980D00BA980D0066
:1049B8000148FFF713BC00BFC0D70320094BD3ED54
:1049C800027AF5EE407AF1EE10FA09D0D3ED037AC7
:1049D800F5EE407AF1EE10FA14BF0120002070477E
:1049E80000207047C0D7032008B501F075FE0368A2
:1049F8001B69984778B10848FFF758FB0648FFF746
:104A0800E7FB0028F1D00448FFF7E8FB014602481D
:104A1800FFF7FEFBE9E708BDC0D7032010B5044641
:104A2800FFF737FB204610BD10B500F059FD01F027
:104A380053FE084C01460848FFF7B8FB11212046F1
:104A480000F030F82046054A0549BDE8104002F05C
:104A58004AB800BF94D70320C0D7032094D60320B8
:104A6800BF480D0038B50C460546282200212046CF
:104A780003F05BF80B220849204603F0ADF8002349
:104A88000122E372E260A969636200232161626125
:104A9800A361E361236238BDC9980D000368C9B2F8
:104AA8009B681847064A02604FF0FF3282614177DF
:104AB8008277FF2180F820200822C1774262704760
:104AC800D8980D002DE9F04190F9203001330546C2
:104AD8000F4604D11648BDE8F04100F087BF07260D
:104AE80000244FF0010895F92000002180B201F060
:104AF800CEFF95F91E0008FA06F1394080B201F0A0
:104B0800C6FF95F92000012180B201F0C0FF95F998
:104B18001F00640080B2E4B201F0D2FF08B144F093
:104B2800010416F1FF36DED22046BDE8F08100BF51
:104B380030E7032010B5084C0121204600F017FF8C
:104B480006492046012200F02FFF20460021BDE83B
:104B5800104000F00FBF00BF30E7032020A107007E
:104B680070B590F91D30013304460E46154616D12E
:104B780001F0F6FE217F00F0ACFF01F0F1FE0368C2
:104B880031469B68984701F0EBFE036829469B680D
:104B9800984701F0E5FEBDE8704000F0A5BF90F928
:104BA8002030013301D1FFF7C5FF94F91D00002122
:104BB80080B201F06CFF06F07F012046FFF782FF0C
:104BC80029462046FFF77EFF94F91D00012180B297
:104BD800BDE8704001F05BBF38B590F91D30013376
:104BE80004460D461DD101F0BBFE94F91C1000F0DF
:104BF80074FF01F0B5FE036829469B68984701F0E9
:104C0800AFFE00F071FF01F0ABFE012294F91C1019
:104C180000F055FF01F0A4FE03685B699847C5B230
:104C28001BE090F92030013301D1FFF783FF94F99D
:104C38001D00002180B201F02AFF45F080012046C6
:104C4800FFF740FF00212046FFF73CFF054694F997
:104C58001D00012180B201F01AFF284638BD38B581
:104C68000D4623210446FFF7B7FF20F0300040EA45
:104C78000512D2B220462321BDE83840FFF770BFA5
:104C880008B52321FFF7A8FFC0F3011008BD38B508
:104C98000D4620210446FFF79FFF00F00F0040EA71
:104CA8000512D2B220462021BDE83840FFF758BF90
:104CB80010B50446017790F91D00421C04D101F09B
:104CC8004FFE00F0EDFE21E0012180B201F0DFFE91
:104CD80094F91D00012180B201F0C8FE94F920006A
:104CE800431C03D11A4800F03DFE0FE0012180B2B9
:104CF80001F0BCFE94F91E00012180B201F0B6FE5D
:104D080094F91F00002180B201F0B0FE0F21204667
:104D1800FFF762FF332819D1072220462021FFF729
:104D28001FFF20460721FFF7B2FF204688222321D4
:104D3800FFF716FF204610222221FFF711FF204619
:104D480080221F21FFF70CFF012010BD002010BD9D
:104D580030E7032010B590F91D300133044643D1E4
:104D680001F0FEFD94F91C1000F0B7FE01F0F8FD0B
:104D7800A821FFF793FE01F0F3FD00F0B5FE01F066
:104D8800EFFD062294F91C1000F099FE01F0E8FDF1
:104D980003685B699847E08001F0E2FD03685B699E
:104DA8009847E38843EA0020E08001F0D9FD0368D2
:104DB8005B699847208101F0D3FD03685B699847D8
:104DC800238943EA0020208101F0CAFD03685B695A
:104DD8009847608101F0C4FD03685B69984763895F
:104DE80043EA002060813CE090F92030013301D192
:104DF800FFF7A0FE94F91D00002180B201F047FEE4
:104E0800E8212046FFF75EFEFF212046FFF75AFE05
:104E1800FF21E0802046FFF755FEE38843EA0020A3
:104E2800E080FF212046FFF74DFEFF21208120462C
:104E3800FFF748FE238943EA00202081FF2120460E
:104E4800FFF740FEFF2160812046FFF73BFE6389A4
:104E580043EA0020608194F91D00012180B201F02D
:104E680016FE2046FFF70CFF032809D002280AD0B7
:104E780001280BD0002843F6FC7318BF012307E074
:104E88004FF4006304E04FF4805301E041F6FE73F1
:104E980007EE903AB4F9063007EE103AF8EEE77AE2
:104EA800B8EEC77AB4F90830C7EE276A07EE103AA9
:104EB800B8EEC77AC4ED036AC7EE276AB4F90A30B8
:104EC80007EE103AB8EEC77AC4ED046AC7EE276A4F
:104ED800C4ED056A10BD70B50C4624260546324659
:104EE8000021204602F021FE2660AB6963600123A1
:104EF800A360002323612846FFF72CFFEB6863615A
:104F08002B69A3616B69E36170BD00F0E9BA000029
:104F1800034B044A1868106000221A60704700BFEB
:104F28005CE30320B4DD03200120704708B5006866
:104F380002F0D5FD014B1860012008BDE4D503201F
:104F480038B5046805467CB16368013B63605BB9AA
:104F5800236820469B689847A368013BA3601BB958
:104F680023682046DB689847284638BD30B5324C60
:104F78003248334D89B0FFF737FD2368B3F5B47F66
:104F8800A4BF0023236000F063FA2B68C01A2D4BDE
:104F98001A684EF66023534398424BD900F058FAEA
:104FA800286000F005FE05462448FFF701FD01468C
:104FB800284601F00EFB2148FFF700FD002839D0F4
:104FC800214B1B689BB11D4904A8FFF795FC1F4B9B
:104FD800049A1B788DF800301D493C2302A800F084
:104FE800EBFF03A8FFF7ACFF04A801F0E7FB1348A9
:104FF8002568FFF775FC174B104803EB850383ED15
:10500800000A2568FFF772FC134B03EB850383ED59
:10501800000A23680133236000F0CAFD07490446EB
:1050280004A8FFF769FC0499204601F0D2FA04A805
:1050380001F0C4FB09B030BD5CE3032058E3032052
:10504800B0DD0320E8D50320E4D5032059E303208D
:1050580051980D0010D80320B8DD032000B50E4884
:1050680089B0FFF7ABFCA0B10B4904A8FFF744FCDB
:105078000A4B049A1B780A498DF8003002A83C2391
:1050880000F09AFF03A8FFF75BFF04A801F096FB66
:10509800012009B05DF804FB58E3032059E303201D
:1050A80051980D0070B5284C2849294D90B008A892
:1050B80001F0CBFB204601F0A1F910EE100A02F036
:1050C8006FF902460B4604A8294601F021FC04A901
:1050D80008A801F0FEFB1F4901F007FC0646204620
:1050E80001F0A2F910EE100A02F05AF902460B4636
:1050F8000CA8294601F00CFC0CA9304601F0E9FB8C
:10510800154B02681B7815498DF8003002A83C231E
:1051180000F052FF03A8FFF713FF0CA801F04EFBA5
:1051280004A801F04BFB08A801F048FB204601F059
:105138007BF9F2EE047AB4EEE70AF1EE10FACCBF8E
:105148000120002010B070BD60E30320EC980D0032
:10515800EF980D00F4980D0059E30320F8980D001E
:105168000246014800F008BE555D0D0010B5114C0F
:105178002046FFF7A3FB2046FFF7D8FB00F018FDF9
:105188004FF4165100F008FD0B490C48FFF7E8FFF3
:105198000B490C48FFF7E4FF0B490C48FFF7E0FF09
:1051A8000B490C48FFF7DCFF0B490C48FFF7D8FF09
:1051B80010BD00BF58E30320354F0D00FA980D00CD
:1051C800AD500D0000990D0065500D0005990D00BA
:1051D800314F0D0009990D00194F0D0012990D005E
:1051E80010B50A4B0A4C01221A7000F079F90948E7
:1051F800FFF762FB0021204601F0C0F82046064A6E
:105208000649BDE8104001F06EBC00BF59E3032019
:1052180060E3032058E3032094D60320A3630D0022
:1052280008B5024B1B681B68019308BD4C020300BC
:1052380008B5024B1B685B68019308BD4C0203006C
:1052480008B5024B1B681B69019308BD4C0203009B
:1052580008B5024B1B685B69019308BD4C0203004B
:1052680008B5024B1B689B69019308BD4C020300FB
:1052780008B5024B1B68DB69019308BD4C020300AB
:1052880008B5024B1B681B6A019308BD4C0203005A
:1052980008B5024B1B68DB68019308BD28020300B0
:1052A80008B5024B1B685B69019308BD280203001F
:1052B80008B5024B1B689B69019308BD28020300CF
:1052C80008B5024B1B68DB69019308BD280203007F
:1052D80008B5024B1B681B6A019308BD280203002E
:1052E80008B5024B1B685B6A019308BD28020300DE
:1052F80008B5024B1B689B6A019308BD280203008E
:1053080008B5024B1B68DB6A019308BD280203003D
:1053180008B5024B1B681B6B019308BD28020300EC
:1053280008B5024B1B685B6B019308BD280203009C
:1053380008B5024B1B681B6C019308BD28020300CB
:1053480008B5024B1B689B6C019308BD280203003B
:1053580008B5024B1B68DB6C019308BD28020300EB
:1053680008B5024B1B681B68019308BD3C0203008B
:1053780008B5024B1B68DB68019308BD3C020300BB
:1053880008B5024B1B681B69019308BD3C0203006A
:1053980008B5024B1B685B69019308BD3C0203001A
:1053A80008B5024B1B689B69019308BD3C020300CA
:1053B80008B5024B1B68DB69019308BD3C0203007A
:1053C80008B5024B1B681B6A019308BD3C02030029
:1053D80008B5024B1B689B6A019308BD3C02030099
:1053E80008B5024B1B68DB6A019308BD3C02030049
:1053F80008B5024B1B685B69019308BD6402030092
:1054080008B5024B1B689B68019308BD480203005E
:1054180008B5024B1B681B69019308BD48020300CD
:1054280008B5024B1B685B69019308BD480203007D
:1054380008B5024B1B681B6B019308BD48020300AB
:1054480008B5024B1B685B6C019308BD480203005A
:1054580008B5024B1B685B69019308BD180203007D
:1054680008B5024B1B681B68019308BD3002030096
:1054780008B5024B1B689B68019308BD3002030006
:1054880008B5024B1B68DB68019308BD30020300B6
:1054980008B5024B1B681B69019308BD3002030065
:1054A80008B5024B1B685B69019308BD3002030015
:1054B80008B5024B1B68DB69019308BD3002030085
:1054C80008B5024B1B681B6A019308BD3002030034
:1054D80008B5024B1B685B6A019308BD30020300E4
:1054E80008B5024B1B681B68019308BD2C0203001A
:1054F80008B5024B1B689B68019308BD2C0203008A
:1055080008B5024B1B68DB68019308BD2C02030039
:1055180008B5024B1B681B69019308BD2C020300E8
:1055280008B5024B1B685B69019308BD2C02030098
:1055380008B5024B1B689B68019308BD680203000D
:1055480008B5024B1B68DB68019308BD68020300BD
:1055580008B5024B1B685B68019308BD4402030051
:1055680008B5024B1B681B6A019308BD440203007F
:1055780008B5024B1B68DB6B019308BD44020300AE
:1055880008B5024B1B685B68019308BD4002030025
:1055980008B5024B1B689B68019308BD40020300D5
:1055A80008B5024B1B68DB68019308BD4002030085
:1055B80008B5024B1B681B69019308BD4002030034
:1055C80008B5024B1B685B69019308BD40020300E4
:1055D80008B5024B1B689B69019308BD4002030094
:1055E80008B5024B1B68DB69019308BD4002030044
:1055F80008B5024B1B681B6A019308BD40020300F3
:1056080008B5024B1B681B6B019308BD40020300E1
:1056180008B5024B1B685B6B019308BD4002030091
:1056280008B5024B1B685B68019308BD20020300A4
:1056380008B5024B1B685B69019308BD2002030093
:1056480008B5024B1B68DB6C019308BD2002030000
:1056580008B5024B1B685B6D019308BD200203006F
:1056680008B5034B1B68D3F88830019308BD0000C8
:105678002002030008B5034B1B68D3F8943001934C
:1056880008BD00002002030008B5024B1B681B6818
:10569800019308BD1C02030008B5024B1B685B6838
:1056A800019308BD1C02030008B5024B1B689B68E8
:1056B800019308BD1C02030008B5024B1B685B6A16
:1056C800019308BD1C02030008B5024B1B68DB6A86
:1056D800019308BD1C02030008B5024B1B681B6B35
:1056E800019308BD1C02030008B5024B1B68DB6B65
:1056F800019308BD1C02030000231A464068FFF707
:105708003FBF002202214068FFF74ABF002211462E
:105718004068FFF73DBF002211464068FFF748BFC9
:1057280000231A4619464068FFF74ABF00231A4665
:1057380019464068FFF74CBF002281F0010140681C
:10574800FFF74EBF00224068FFF75ABF00221146FC
:105758004068FFF75DBF002211464068FFF748BF69
:1057680070B58CB01446064600F082FA0CAB0022E5
:10577800114643F8302D2046FFF7E2FE014658BB9C
:10578800009B4BB35A68022A0ED00A2A24D15C69BE
:10579800112201A802F0C9F906238DF8143001ADD1
:1057A80004F10803183405E059693046043100F063
:1057B8008CFA11E0186859682A4603C20833A342D4
:1057C8001546F7D101A906A807AD00F05FFA0FCD7D
:1057D800341D0FC42B6823700098FFF7A9FE3046CC
:1057E8000CB070BD024B034A1A6000225A60704721
:1057F80068E3032024990D00002211464068FFF752
:10580800F7BE002211464068FFF702BF0022406839
:10581800FFF7F6BE002281F001014068FFF7E0BE05
:1058280000231A4619464068FFF7D2BE00231A46DD
:1058380019464068FFF7C4BE002211464068FFF7CA
:10584800B7BE002211464068FFF7A2BE002202211F
:105858004068FFF7A5BE00231A464068FFF790BED0
:1058680010B103685B681847704738B5044600688C
:10587800D0B1FFF7C5FDB8B9237C1BB9206808B1C2
:10588800FFF7C6FD656855B1AB681BB10322294611
:10589800284698472846FEF7FCFB002363602068EB
:1058A800FFF7BEFD0023236038BD000038B50B4B61
:1058B80003600446D0F8CC0108B1FEF7ECFBD4F83D
:1058C800C4512DB12846FFF7D0FF2846FEF7E1FB6B
:1058D800A06808B1FFF7C4FF204638BD58990D00ED
:1058E80038B50D4C0D4B23600025022304F5E470F8
:1058F8006360A560C4F8C451C4F8C851FFF7A0FD9F
:10590800074BC4F8CC5123602046064A0649BDE837
:10591800384001F0E8B800BF70E3032024990D0077
:1059280058990D0094D60320B5580D00704710B54E
:105938000446FEF7AEFB204610BD000070B5084BCC
:105948000360044600250E4640F80C5FFFF770FD23
:1059580030462671FFF7ACFDA560204670BD00BF3C
:105968008C990D004FF6FF710079FFF779BD00792A
:10597800FFF77EBD0079FFF783BD0000400830B512
:105988001860002418688842E5B206D90134082C4A
:1059980002D040081860F5E70725024B5B5D1370DD
:1059A80030BD00BF94990D0070B588B0067902FB30
:1059B80001F504461422002103A802F0B6F80B23CF
:1059C80003A930460022ADF80C30FFF781FD02AB89
:1059D8000DF1070229460498FFF7D0FF20799DF8BA
:1059E8000710FFF755FD029808B070BD08B500799B
:1059F800FFF756FDC0B208BD0079FFF761BD10B5CD
:105A0800836804460BB901F073F8C3689847A36824
:105A18001BB103222146204698472046BDE8104086
:105A2800FEF737BB7047F8B5064615460C468F1883
:105A3800BC4206D0336814F8011B9B68304698476F
:105A4800F6E72846F8BD0022007CFFF741BC00219C
:105A5800007CFFF745BC0021007CFFF749BC002112
:105A6800007CFFF74DBC0021007CFFF751BC10B54E
:105A78000446FEF70EFB204610BD000010B5044694
:105A88004FF47A730846A3600021044B20746160C8
:105A98002360FFF74DFC204610BD00BFA4990D0000
:105AA80000231A461946007CFFF7F2BB13B5002401
:105AB800007C0094FFF7F4FBC0B202B010BD0123D4
:105AC800D2B2C9B2FFF7F2BFDBB2D2B2C9B2FFF7A6
:105AD800EDBF0022007CFFF7EBBBC9B2FFF7F9BFAF
:105AE8000022007CFFF7ECBB0121FFF7F9BF002182
:105AF800007CFFF715BC08B50021007CFFF720FCEF
:105B0800B0FA80F0400908BD08B50021007CFFF715
:105B18001FFCB0FA80F0400908BD41747047704717
:105B28000021007CFFF79CBB0121007CFFF798BB9C
:105B3800007CFFF78DBB007CFFF782BB38B50446BD
:105B4800007C0D46FFF784FB002801DC607C20B157
:105B58002946207CFFF78CFB012038BD007CFFF72D
:105B68008FBB10B50446FEF794FA204610BD00001E
:105B780010B50446002363604FF47A73A360054BA5
:105B8800236001230846217463741146FFF748FB1C
:105B9800204610BDCC990D000022007CFFF748BBC1
:105BA80010B514220446002101F0BFFF204610BDA5
:105BB80030B50E4D87B001A8FFF7F2FF296811F044
:105BC800010410D12846FEF768FA60B101AA2146FF
:105BD8000748FFF7CDFF2846FEF764FA054A06494D
:105BE800034800F080FF024807B030BD40E50320BD
:105BF80044E5032094D60320275B0D00704710B5B9
:105C08000446FEF746FA204610BDF0B5037D062B84
:105C18008DB00E4600F104074FF0000402D000F1E9
:105C2800080518E00CAD394605F8304D2F232A46F3
:105C38000A20FFF7DDFB284601F0B1FF3368024672
:105C4800DB682946304698470FE024B12E213046BC
:105C580000F0B0FC044415F8011D0A22304600F09B
:105C6800EFFCBD420444F0D120460DB0F0BD000069
:105C780010B5054B0446112240F8043B002101F001
:105C880054FF204610BD00BFFC990D000346074A8B
:105C980010B543F8042B01F1100251F8044B43F8F6
:105CA800044B9142F9D10A781A7010BDFC990D0085
:105CB80010B59DF8084044EA032343EA024242EA49
:105CC800016104234160037510BD37B50D788B78E9
:105CD8004A78C97800912946FFF7EAFF03B030BD3A
:105CE80070470020704710B50446FEF7D2F92046E9
:105CF80010BD08B508B1FFF7F6FF08BD10B58368F9
:105D0800044613B1032201469847204610BD38B512
:105D1800C468D4B12378022B02D1E068FFF7BCFC39
:105D280065682DB12846FFF7E9FF2846FEF7B1F967
:105D3800A5682DB12846FFF7E1FF2846FEF7A9F927
:105D48002046BDE83840FEF7A4B938BD10B588B084
:105D58000446684600F079FD694604A800F097FDFE
:105D680004A8A047044604A800F028FD684600F0EF
:105D780025FD204608B010BDF0B5102485B00746B3
:105D88000E46154600212246684601F0CEFE002246
:105D980069461046ADF80040029703960195FFF753
:105DA800D7FB05B0F0BD13B5044691E80500002304
:105DB8004B600B602060626001A801930093FFF7BD
:105DC800BFF8204602B010BD0B68036013B15A68D3
:105DD80001325A607047F7B50C4602AD54F8043BDF
:105DE80045F8083D06460F4601A82146FFF7ECFF97
:105DF80029463046FFF7D7FF01A8FFF7A1F820464C
:105E0800FFF79EF83846FEF744F9304603B0F0BD78
:105E180013B50B46044603C88DE8030093E8030056
:105E280084E803009DE8030083E8030002B010BD86
:105E3800826810B50AB900F05BFEC368BDE810407F
:105E4800184708B5006800F11001FFF7F1FF08BD19
:105E5800826810B50AB900F04BFEC368BDE810406F
:105E6800184708B5006800F11001FFF7F1FF08BDF9
:105E780038B5002383608B6804460D462BB1022297
:105E88009847EB68E360AB68A360204638BD000024
:105E98002DE9F0414FF69C7386B00468B1F90420EF
:105EA8008B8000230F688DF800300B604FF00200E4
:105EB800D4E84F1F994203D1C4E8450F002DF7D10C
:105EC80002D08DF800106AE014F10C051EBFE760DF
:105ED80022821F460123BFF35F8F0020637004F105
:105EE8000803BFF35F8F53E8006F43E80002002AFE
:105EF800F9D1BFF35F8F002E51D0FFF7A1FB20B17E
:105F080029463046FFF794FF43E031466846FFF7DD
:105F1800AFFFE068B4F9105008B101F025FE049015
:105F28001020ADF81450FEF7B2F8054630B34FF024
:105F38000008C0F808801820FEF7A9F80446C0B188
:105F4800C0F8088001466846FFF762FF029BA26816
:105F5800A360039B0292E268E360BDF81430A38259
:105F68004FF69C73ADF81430049B03922361CDF86F
:105F780010800E4BEB600E4B2C60AB600498FFF763
:105F88008BFB6846FFF7BAFE002229460948FFF74F
:105F98005FFB3046FFF7B2FE3046FEF77AF8384628
:105FA800FFF77AFB06B0BDE8F08100BF4B5E0D003D
:105FB800A9600D00075A0D002DE9F04F8BB007AD11
:105FC8004FF0000B0646994614200C230F469046C6
:105FD8009DF850A0C5F804B0C5F808B00793FEF7BF
:105FE80056F8044638B180F800B080F801B0C0F81F
:105FF80004B0C0F808B00023102003940493FEF7FF
:1060080046F828B1012343608360234B0360C460D2
:106018000490224B08930820FEF739F8044628B16B
:10602800039B40F8043B04A9FFF7CEFE00955FFAF6
:106038008AF34A46414638460994FFF791FAB8B9B7
:10604800039B5B7803F0FF0293B94FF69C7305A995
:1060580003A80592ADF81830FFF71AFF0598FFF767
:106068001BFB05A80999FFF7B6FE06A8FEF768FF0F
:10607800039B059304A906A8FFF7A6FE05A93046C9
:10608800FFF791FE06A8FEF75BFF04A8FEF758FF8E
:1060980030460BB0BDE8F08F109A0D0011620D006C
:1060A800022AF8B5044606D0032A17D0012A20D1BF
:1060B8000B6803601DE018200E68FDF7E8FF054631
:1060C80050B13146FFF7D4FE3069B6F9147008B103
:1060D80001F04AFD2861AF8225600AE0046844B1F6
:1060E8002069FFF7D9FA2046FFF708FE2046FDF79A
:1060F800D0FF0020F8BD38B5002383608B680446C4
:106108000D462BB102229847EB68E360AB68A360A9
:10611800204638BD022A70B5044606D0032A11D09D
:10612800012A17D10B68036014E014200E68FDF7EC
:10613800AEFF054620B13146FFF7DDFF337C2B74F7
:10614800256007E004682CB12046FFF7D7FD2046FC
:10615800FDF79FFF002070BDF0B5002387B00C4607
:10616800BFF35F8F50E8006F40E80032002AF9D192
:10617800BFF35F8F002E3ED01846FFF761FA07463F
:1061880020B121463046FFF763FE2EE0314601A8D4
:10619800FFF7B1FF23788DF814301020FDF777FF53
:1061A8000546D0B187601420FDF771FF044678B129
:1061B8008760014601A8FFF72BFE039BA268A36036
:1061C800049B0392E268E3609DF814300492237400
:1061D8000A4BEB600A4B2C60AB6001A8FFF78EFD01
:1061E800002229460748FFF733FA3046FFF786FDB5
:1061F8003046FDF74EFF07B0F0BD00BF6B5E0D00E7
:106208001D610D00075A0D0030B585B004460D46D6
:1062180068461146FFF7DFFD7CB124B228460DB170
:1062280001F0A2FC029002A96846ADF80C40FFF705
:106238002FFE0298FFF730FA1DE000988DF808400D
:106248004FF00102D0E84F3FA34203D1C0E8412FED
:106258000029F7D102D08DF808300CE010F10C01BC
:106268004FF0010318BF0373BFF35F8F043000F8CA
:10627800033CFFF771FF01A8FEF762FE05B030BDD1
:106288000021FFF7D5B9000008B50C4B33B1FFF773
:106298008FFC03681B699847002809DC084B63B129
:1062A80000F01AFA03681B699847002803DC08BD48
:1062B800AFF30080F2E7AFF3008008BD00000000F4
:1062C8000000000008B5FFF7DFFFFFF7C1F8014B3A
:1062D800186008BD2CE7032007B5002300931A4671
:1062E8006FF07701FFF7C6F903B05DF804FB000013
:1062F80007B543880A2B08D0502B09D1094B1B68D6
:106308003BB103B05DF804EB1847FFF7E5FF06E083
:10631800002300931A466FF07701FFF7ABF903B03B
:106328005DF804FB58E5032008B500210448FFF791
:106338001FF900210348BDE80840FFF791B900BFE5
:1063480000000000F9620D00090941EA001007EE9B
:10635800900AB8EEE70ADFED027A80EE270A704766
:10636800000048440068FFF7C6BB10B5044601604A
:1063780002710AB1FFF7F6FF204610BD38B5044692
:106388000D4600F00DFB2A4601462046FFF7EDFFBB
:10639800204638BD0068FFF7B7BB10B5037904463F
:1063A8000BB1FFF7F7FF204610BDF8B504461646B7
:1063B8001D460F46FFF7D6FF20683621FFF78DFBF5
:1063C8002068036839469B68984701212068FFF7D1
:1063D80087FB0222362101232068FFF775FB20681E
:1063E80003685B6998473070206803685B69984761
:1063F80028702046BDE8F840FFF7CCBF07B502ABD0
:1064080000228DF8062003F8012D02210DF1060265
:10641800FFF7CBFF9DF807109DF8060003B05DF865
:1064280004EBFFF791BF000007B502AB002203F8A9
:10643800012D8DF8062004210DF10602FFF7B5FFA6
:106448009DF8070000F09AFF0022094B00F0FCFFBE
:1064580001F0F2FA9DF8063000EE103A07EE900AC5
:10646800B8EEC00A37EE800A03B05DF804FB00BF3F
:106478000000703F002211464068FFF799B80022DB
:1064880011464068FFF7B4B8002211464068FFF78C
:10649800BFB800224068FFF7B3B8002281F00101BD
:1064A8004068FFF79DB800231A4619464068FFF771
:1064B8008FB800231A4619464068FFF781B80022B2
:1064C80011464068FFF764B8002202214068FFF7D0
:1064D80067B800231A464068FFF752B838B50C4D24
:1064E800282422460021284601F01FFB4FF0FF33E5
:1064F8006B602C80074D042328466B60064B40F8E0
:10650800083B2246002101F010FB2C8138BD00BF5A
:106518008CE503205CE503202C9A0D0010B5044699
:10652800FFF7ECFB204610BD0348044A044900234A
:10653800836000F0D8BA00BFB4E5032094D60320E6
:1065480025650D00024B1A68024B1A60704700BFA0
:10655800ECD50320C4E50320014B024A1A607047BA
:10656800C8E50320379B0D00F8B506460D468F1881
:106578000024BD420CD0336815F8011B9B683046D7
:106588009847002801DB0444F3E7002C08BF0446C1
:106598002046F8BD70B505460C46084649B101F0DD
:1065A800FEFA2B68024621462846DB68BDE87040A3
:1065B800184770BD03689B68184738B50D21054614
:1065C800FFF7F8FF0A2104462846FFF7F3FF2044A7
:1065D80038BD38B50546FFF7DDFF04462846FFF706
:1065E800ECFF204438BD30B58BB00B4600218DF848
:1065F8002410012A98BF0A220DF12304B3FBF2F5F7
:1066080005FB123303F0FF03092B94BF30333733F4
:10661800DBB2214604F801392B46002DEED1FFF7F5
:10662800B9FF0BB030BD10B42AB903685DF8044B4C
:106638009B68C9B21847D2B25DF8044BFFF7D3BFC5
:10664800FFF7F1BF704741747047007CFEF7C0BE8A
:10665800007CFEF795BE007CFEF7A2BE007CFEF72C
:1066680097BE007CFEF7A4BE10B50446FDF711FDE9
:10667800204610BD70B5457C04460E4625B9007C01
:10668800FEF7A6FE002805DD3146207CBDE87040F7
:10669800FEF76EBE284670BD10B504460846114682
:1066A800002262604FF47A72A260054A22600122D9
:1066B800207462741A46FEF753FE204610BD00BFD0
:1066C800689B0D000023007CFEF78ABE0022FFF7BE
:1066D800F9BF007CFEF774BE38B50C4D296811F07F
:1066E800010411D12846FDF7D8FC68B1084A094BC6
:1066F80009482146FFF7D0FF2846FDF7D3FC074A93
:106708000749054800F0EFF9034838BD64E603205F
:1067180068E60320E0E50320CCE5032094D60320B7
:106728004D660D00054B4FF69C7200205A804FF6BF
:10673800FF7218709A80FEF773BF00BFECE6032063
:10674800002211464068FEF753BF002211464068F8
:10675800FEF75EBF00224068FEF752BF002281F0BC
:1067680001014068FEF73CBF00231A4619464068FD
:10677800FEF72EBF00231A4619464068FEF720BFD1
:10678800002211464068FEF713BF002211464068F8
:10679800FEF7FEBE002202214068FEF701BF00237B
:1067A8001A464068FEF7ECBE024B03225A60024AC2
:1067B8001A607047F4E60320989B0D0010B5044654
:1067C8000068FEF769FF204610BD10B50446006852
:1067D80008B1FEF761FF00232360A360636010BD6A
:1067E80038B504460D4600680131FEF75DFF10B16B
:1067F80084E82100012038BD10B50368044613B1B0
:1068080043688B4207D22046FFF7EAFF20B1A3680E
:106818000BB922681370012010BD70B50E461146E1
:1068280004461546FFF7E8FF18B92046FFF7CDFFE5
:1068380009E02A463146A560206801F06BF9226814
:10684800A3680021D154204670BD38B50023044602
:1068580003604360836003730D4639B1084601F055
:106868009EF9294602462046FFF7D7FF204638BD45
:10687800884210B50B46044607D0096819B19A68D2
:10688800FFF7CBFF01E0FFF7A0FF204610BD10B5D2
:10689800002304460360436083600373FFF7E8FF47
:1068A800204610BD70B504460E4609B9002070BDDB
:1068B8006AB18368D5182946FFF79EFF0028F5D0EE
:1068C8002068A3683146184401F045F9A560012005
:1068D80070BD10B58A6809680446FFF7E3FF10B970
:1068E8002046FFF772FF204610BD38B504460D4616
:1068F80041B1084601F053F9294602462046FFF700
:10690800D1FF10B92046FFF760FF204638BD0000D0
:106918000EB4FFB509AC054654F8047B0194234630
:106928003A46052102A8FEF7C7FE0C490646284646
:10693800FFF78BFF31462846FFF75EFF286830B126
:1069480023463A46711C0194FEF7B6FEA860284615
:1069580004B0BDE8F04003B0704700BF959A0D0041
:1069680038B50B4D296811F001040FD12846FDF701
:1069780094FB58B121460748FFF780F82846FDF7F1
:1069880091FB054A0549034800F0ADF8014838BDB8
:10699800FCE6032014E7032094D603202D5A0D00AB
:1069A80010B50B4C2368DB070FD42046FDF775FBA9
:1069B80058B101210748FFF761F82046FDF772FB3F
:1069C800054A0649034800F08EF8024810BD00BF8A
:1069D80028E7032000E7032094D603202D5A0D0052
:1069E80070B50C4C0C4E0D4D00212046FEF7A6FF4D
:1069F80020460B4C3246294600F075F80121204606
:106A0800FEF79CFF324629462046BDE8704000F05C
:106A18006AB800BF30E7032094D6032035590D002B
:106A280040E7032010B504460F48FEF7E5FF28B1FC
:106A3800A4F10B03022B01D8002010BDFFF790FF33
:106A4800FFF755F808B1012CF6D9FFF745FEFFF717
:106A580040FE18B1A4F10903012BEDD9232C8CBFFA
:106A68000020012010BD00BF30E70320232838B5DF
:106A780004460D460AD8FF2908D0FFF7D3FF28B1EE
:106A880029462046BDE83840FEF732BD38BD38B546
:106A980004460D46FEF734FDFF2810D0062804D81A
:106AA8004D2323FA00F0C30709D42046FFF7BAFFA5
:106AB80028B129462046BDE83840FEF729BD38BD33
:106AC80010B50446FEF71CFD0438C0B2012808D9E9
:106AD8002046FFF7A7FF20B12046BDE81040FEF78B
:106AE8001FBD002010BD0B460146184601F000B836
:106AF80008B5FEF7E9FD0000184B1A68D1075CBF1E
:106B080001221A60164B1A68D2075CBF01221A606C
:106B1800144B1A68D0075CBF01221A60124B1A681E
:106B2800D1075CBF01221A60104B1A68D2075CBFFC
:106B380001221A600E4B1A68D0075CBF01221A6046
:106B48000C4B1A68D1075CBF01221A600A4B1A68FD
:106B5800D2075CBF01221A60704700BF6CE70320B0
:106B680068E7032064E7032060E703205CE703206D
:106B780058E7032054E7032050E70320244B1A6802
:106B8800D0075CBF01221A60224B1A68D1075CBF8C
:106B980001221A60204B1A68D2075CBF01221A60D2
:106BA8001E4B1A68D0075CBF01221A601C4B1A687A
:106BB800D1075CBF01221A601A4B1A68D2075CBF62
:106BC80001221A60184B1A68D0075CBF01221A60AC
:106BD800164B1A68D1075CBF01221A60144B1A6859
:106BE800D2075CBF01221A60124B1A68D0075CBF3B
:106BF80001221A60104B1A68D1075CBF01221A6083
:106C08000E4B1A68D2075CBF01221A60704700BF9A
:106C18009CE7032098E7032094E7032090E70320EC
:106C28008CE7032088E7032084E7032080E703201C
:106C38007CE7032078E7032074E7032070E703204C
:106C4800244B1A68D0075CBF01221A60224B1A68CD
:106C5800D1075CBF01221A60204B1A68D2075CBFBB
:106C680001221A601E4B1A68D0075CBF01221A6005
:106C78001C4B1A68D1075CBF01221A601A4B1A68AC
:106C8800D2075CBF01221A60184B1A68D0075CBF94
:106C980001221A60164B1A68D1075CBF01221A60DC
:106CA800144B1A68D2075CBF01221A60124B1A688B
:106CB800D0075CBF01221A60104B1A68D1075CBF6D
:106CC80001221A600E4B1A68D2075CBF01221A60B3
:106CD800704700BFCCE70320C8E70320C4E70320C0
:106CE800C0E70320BCE70320B8E70320B4E703208C
:106CF800B0E70320ACE70320A8E70320A4E70320BC
:106D0800A0E70320184B1A68D1075CBF01221A605C
:106D1800164B1A68D2075CBF01221A60144B1A6816
:106D2800D0075CBF01221A60124B1A68D1075CBFFA
:106D380001221A60104B1A68D2075CBF01221A6040
:106D48000E4B1A68D0075CBF01221A600C4B1A68F8
:106D5800D1075CBF01221A600A4B1A68D2075CBFD0
:106D680001221A60704700BFECE70320E8E7032020
:106D7800E4E70320E0E70320DCE70320D8E703206B
:106D8800D4E70320D0E703202DE9F0432DED028B53
:106D98008BB057EC106B55EC114B00F061F82E4B93
:106DA800B0EE408AF0EE608A93F90080B8F1FF3FB8
:106DB80031D022462B462046294600F0DFFD50BB45
:106DC80032463B463046394600F0D8FD814610BB76
:106DD800002200232046294600F09EFDD8B11F4B13
:106DE800CDF820900122CDE90267CDE904458DE870
:106DF8000C00B8F1000F17D1CDE90667684600F01E
:106E080069F9E0B1089B0BBB9DED060B0BB0BDEC1F
:106E1800028BBDE8F083B0EE480AF0EE680A0BB0CA
:106E2800BDEC028BBDE8F083002200231046194612
:106E380000F034FCB8F1020FCDE90601DED1FEF70F
:106E480053FC21230360089B002BDDD0FEF74CFC8C
:106E5800089B0360D8E700BFF0D50320C49B0D0052
:106E68002DE9F84F53EC112B23F0004952EA0900A1
:106E780055EC104B25D005F000468F4885EA060BE7
:106E880083451EDC50421043DFF844C249EAD07003
:106E9800604511EE108A14D8CB451F4610EE10AA93
:106EA80011EE10EA10EE101A17DC28DB944226D3F4
:106EB80013D1824BF60F03EBC60393ED000BBDE82D
:106EC800F88F2046294600F0BFFA02460B4600F02C
:106ED800E5FB41EC100BBDE8F88FBBF5801F12DA1B
:106EE800BBF1000F40F0A780BAF1000F5346744879
:106EF8000DDD5B00002B00F1FF30FADC07E045EC0C
:106F0800104BBDE8F88F4FEA2B50A0F2FF30B9F5CF
:106F1800801F0FDAB9F1000F40F0A780B8F1000F19
:106F28004346DFF89CC109DD5B00002B0CF1FF3CF8
:106F3800FADC03E04FEA295CACF2FF3C614B984273
:106F48005BDBCBF3130343F480135E4A944563DBA6
:106F5800C7F3130545F48015CCEB000007E052EAAF
:106F6800040313D0E30F03EB420361000138CEEBB7
:106F780001045A1B90B1714538BF02F1FF32002A53
:106F8800EDDACA0F02EB43034900EFE74B4BF60F6C
:106F980003EBC60696ED000BBDE8F88F7145154664
:106FA80038BF02F1FF35002DACBFCEEB01011D4605
:106FB80055EA0103EAD0444A954208DCCB0F03EBBB
:106FC800450595420CF1FF3C4FEA4101F6DD3D4B8A
:106FD8009C4554DA3B4ACCEB0202142A5BDCC2F132
:106FE800200305FA03F3D1400B43154145EA060196
:106FF800184641EC100BBDE8F88F3249091A1F29D1
:107008002DDCC1F120030BFA01FB2AFA03F343EA52
:107018000B030AFA01F198E72A4CCCEB04041F2C65
:1070280015DCC4F1200209FA04F528FA02F2154326
:1070380008FA04FE90E74FEACB23002B21487FF79C
:1070480066AF5B00002B00F1FF30FADC5FE71F4DF5
:10705800CCEB050508FA05F54FF0000E7CE71B4B55
:107068001B1A0AFA03F300216FE7DFF858C04FEA4A
:10707800C9235B00002B0CF1FF3CFADC5EE7A5F5A9
:1070880080152E430CF2FF3C46EA0C530A4643ECAB
:10709800102BBDE8F88F1F2A07DCC2F120039D40A2
:1070A800D14045EA01033546A0E7084BCCEB030382
:1070B80045FA03F3354699E7FFFFEF7FD09B0D00B4
:1070C800EDFBFFFF02FCFFFFFFFF0F00E2FBFFFFEE
:1070D8000000F07F0020704781F0004102E000BF0F
:1070E80083F0004330B54FEA41044FEA430594EA80
:1070F800050F08BF90EA020F1FBF54EA000C55EABB
:10710800020C7FEA645C7FEA655C00F0E2804FEA8B
:107118005454D4EB5555B8BF6D420CDD2C4480EA6D
:10712800020281EA030382EA000083EA010180EA9D
:10713800020281EA0303362D88BF30BD11F0004FEB
:107148004FEA01314FF4801C4CEA113102D0404221
:1071580061EB410113F0004F4FEA03334CEA13335C
:1071680002D0524263EB430394EA050F00F0A78074
:10717800A4F10104D5F1200E0DDB02FA0EFC22FA6F
:1071880005F2801841F1000103FA0EF2801843FA63
:1071980005F359410EE0A5F120050EF1200E012A54
:1071A80003FA0EFC28BF4CF0020C43FA05F3C01892
:1071B80051EBE37101F0004507D54FF0000EDCF10B
:1071C800000C7EEB00006EEB0101B1F5801F1BD3B4
:1071D800B1F5001F0CD349085FEA30004FEA3C0CB8
:1071E80004F101044FEA445212F5800F80F09A80AE
:1071F800BCF1004F08BF5FEA500C50F1000041EBB2
:10720800045141EA050130BD5FEA4C0C404141EBB5
:10721800010111F4801FA4F10104E9D191F0000FDC
:1072280004BF01460020B1FA81F308BF2033A3F15F
:107238000B03B3F120020CDA0C3208DD02F1140C56
:10724800C2F10C0201FA0CF021FA02F10CE002F191
:107258001402D8BFC2F1200C01FA02F120FA0CFC8A
:10726800DCBF41EA0C019040E41AA2BF01EB0451D3
:10727800294330BD6FEA04041F3C1CDA0C340EDCD1
:1072880004F11404C4F1200220FA04F001FA02F314
:1072980040EA030021FA04F345EA030130BDC4F1D2
:1072A8000C04C4F1200220FA02F001FA04F340EAC7
:1072B8000300294630BD21FA04F0294630BD94F078
:1072C800000F83F4801306BF81F480110134013D5F
:1072D8004EE77FEA645C18BF7FEA655C29D094EAD0
:1072E800050F08BF90EA020F05D054EA000C04BF4E
:1072F8001946104630BD91EA030F1EBF0021002039
:1073080030BD5FEA545C05D14000494128BF41F0D7
:10731800004130BD14F580043CBF01F5801130BD3B
:1073280001F0004545F0FE4141F470014FF00000C6
:1073380030BD7FEA645C1ABF194610467FEA655C77
:107348001CBF0B46024650EA013406BF52EA033519
:1073580091EA030F41F4002130BD00BF90F0000F07
:1073680004BF0021704730B54FF4806404F1320443
:107378004FF000054FF0000150E700BF90F0000FFC
:1073880004BF0021704730B54FF4806404F1320423
:1073980010F0004548BF40424FF000013EE700BFF3
:1073A80042004FEAE2014FEA31014FEA02701FBF83
:1073B80012F07F4393F07F4F81F06051704792F055
:1073C800000F14BF93F07F4F704730B54FF46074CF
:1073D80001F0004521F0004120E700BF50EA01021A
:1073E80008BF704730B54FF000050AE050EA0102C7
:1073F80008BF704730B511F0004502D5404261EB37
:1074080041014FF4806404F132045FEA915C3FF477
:10741800DCAE4FF003025FEADC0C18BF03325FEA10
:10742800DC0C18BF033202EBDC02C2F1200300FAC5
:1074380003FC20FA02F001FA03FE40EA0E0021FAEA
:1074480002F11444C1E600BF70B54FF0FF0C4CF4D4
:10745800E06C1CEA11541DBF1CEA135594EA0C0F8A
:1074680095EA0C0F00F0DEF82C4481EA030621EAC5
:107478004C5123EA4C5350EA013518BF52EA033500
:1074880041F4801143F4801338D0A0FB02CE4FF0B2
:107498000005E1FB02E506F00042E0FB03E54FF0E2
:1074A8000006E1FB03569CF0000F18BF4EF0010EDA
:1074B800A4F1FF04B6F5007F64F5407404D25FEAD6
:1074C8004E0E6D4146EB060642EAC62141EA555189
:1074D8004FEAC52040EA5E504FEACE2EB4F1FD0CCB
:1074E80088BFBCF5E06F1ED8BEF1004F08BF5FEA49
:1074F800500E50F1000041EB045170BD06F00046FB
:1075080046EA010140EA020081EA0301B4EB5C04A7
:10751800C2BFD4EB0C0541EA045170BD41F480119F
:107528004FF0000E013C00F3AB8014F1360FDEBFC4
:10753800002001F0004170BDC4F10004203C35DAA0
:107548000C341BDC04F11404C4F1200500FA05F323
:1075580020FA04F001FA05F240EA020001F00042C4
:1075680021F0004110EBD37021FA04F642EB06013A
:107578005EEA430E08BF20EAD37070BDC4F10C0464
:10758800C4F1200500FA04F320FA05F001FA04F228
:1075980040EA020001F0004110EBD37041F1000114
:1075A8005EEA430E08BF20EAD37070BDC4F120051F
:1075B80000FA05F24EEA020E20FA04F301FA05F287
:1075C80043EA020321FA04F001F0004121FA04F22F
:1075D80020EA020000EBD3705EEA430E08BF20EAFF
:1075E800D37070BD94F0000F0FD101F00046400039
:1075F80041EB010111F4801F08BF013CF7D041EABB
:10760800060195F0000F18BF704703F000465200BE
:1076180043EB030313F4801F08BF013DF7D043EA8F
:107628000603704794EA0C0F0CEA135518BF95EA45
:107638000C0F0CD050EA410618BF52EA4306D1D1CC
:1076480081EA030101F000414FF0000070BD50EAEB
:10765800410606BF1046194652EA430619D094EA75
:107668000C0F02D150EA013613D195EA0C0F05D15F
:1076780052EA03361CBF104619460AD181EA0301B3
:1076880001F0004141F0FE4141F470014FF000006B
:1076980070BD41F0FE4141F4780170BD70B54FF006
:1076A800FF0C4CF4E06C1CEA11541DBF1CEA135586
:1076B80094EA0C0F95EA0C0F00F0A7F8A4EB050468
:1076C80081EA030E52EA03354FEA013100F088805F
:1076D8004FEA03334FF0805545EA131343EA126328
:1076E8004FEA022245EA111545EA10654FEA0026DD
:1076F8000EF000419D4208BF964244F1FD0404F596
:10770800407402D25B084FEA3202B61A65EB0305F1
:107718005B084FEA32024FF480104FF4002CB6EBAE
:10772800020E75EB030E22BFB61A754640EA0C002E
:107738005B084FEA3202B6EB020E75EB030E22BF6E
:10774800B61A754640EA5C005B084FEA3202B6EBAF
:10775800020E75EB030E22BFB61A754640EA9C006E
:107768005B084FEA3202B6EB020E75EB030E22BF3E
:10777800B61A754640EADC0055EA060E18D04FEAFC
:10778800051545EA16754FEA06164FEAC30343EA9C
:1077980052734FEAC2025FEA1C1CC0D111F4801F69
:1077A8000BD141EA00014FF000004FF0004CB6E762
:1077B80011F4801F04BF01430020B4F1FD0C88BF01
:1077C800BCF5E06F3FF6AFAEB5EB030C04BFB6EB0C
:1077D800020C5FEA500C50F1000041EB045170BDFF
:1077E8000EF0004E4EEA113114EB5C04C2BFD4EB2C
:1077F8000C0541EA045170BD41F480114FF0000EB0
:10780800013C90E645EA060E8DE60CEA135594EA2B
:107818000C0F08BF95EA0C0F3FF43BAF94EA0C0F2E
:107828000AD150EA01347FF434AF95EA0C0F7FF4A3
:1078380025AF104619462CE795EA0C0F06D152EAF7
:1078480003353FF4FDAE1046194622E750EA4106DB
:1078580018BF52EA43067FF4C5AE50EA41047FF4EC
:107868000DAF52EA43057FF4EBAE12E74FF0FF3C51
:1078780006E000BF4FF0010C02E000BF4FF0010C22
:107888004DF804CD4FEA410C7FEA6C5C4FEA430C9B
:1078980018BF7FEA6C5C1BD001B050EA410C0CBFEA
:1078A80052EA430C91EA030F02BF90EA020F00204C
:1078B800704710F1000F91EA030F58BF994208BFB3
:1078C80090422CBFD8176FEAE37040F00100704770
:1078D8004FEA410C7FEA6C5C02D150EA013C07D1C7
:1078E8004FEA430C7FEA6C5CD6D152EA033CD3D012
:1078F8005DF8040B704700BF8446104662468C460C
:107908001946634600E000BF01B5FFF7B7FF00283E
:1079180048BF10F1000F01BD4DF808EDFFF7F4FF67
:107928000CBF012000205DF808FB00BF4DF808EDF2
:10793800FFF7EAFF34BF012000205DF808FB00BF15
:107948004DF808EDFFF7E0FF94BF012000205DF837
:1079580008FB00BF4DF808EDFFF7CEFF94BF0120EC
:1079680000205DF808FB00BF4DF808EDFFF7C4FFE5
:1079780034BF012000205DF808FB00BF4FEA410C2E
:107988007FEA6C5C02D150EA013C0AD14FEA430C11
:107998007FEA6C5C02D152EA033C02D14FF000004E
:1079A80070474FF0010070474FEA410212F500128C
:1079B80015D211D56FF47873B3EB625212D94FEA2E
:1079C800C12343F0004343EA505311F0004F23FA18
:1079D80002F018BF404270474FF00000704750EA6D
:1079E800013005D111F0004008BF6FF0004070472A
:1079F8004FF00000704700BF4A0011D212F5001284
:107A080011D20DD56FF47873B3EB62520ED44FEAEE
:107A1800C12343F0004343EA505323FA02F070476E
:107A28004FF00000704750EA013002D14FF0FF30AC
:107A380070474FF0000070474FEA4102B2F1E0434F
:107A480024BFB3F5001CDCF1FE5C0DD901F0004C3D
:107A58004FEAC0024CEA5070B2F1004F40EB83008D
:107A680008BF20F00100704711F0804F21D113F1B9
:107A78003872BCBF01F00040704741F480114FEAF2
:107A88005252C2F11802C2F1200C10FA0CF320FA7B
:107A980002F018BF40F001004FEAC1234FEAD32398
:107AA80003FA0CFC40EA0C0023FA02F34FEA430302
:107AB800CCE77FEA625307D150EA01331EBF4FF08B
:107AC800FE4040F44000704701F0004040F0FE40A6
:107AD80040F40000704700BF002100F0C9BE0A2230
:107AE800002100F053BF0A22002100F04FBF000020
:107AF80010B5054C13462CB10A4601460220AFF3D7
:107B0800008010BD204610BD0000000000487047EE
:107B18005CD6032010B5431E0A44914204D011F8E4
:107B2800014B03F8014FF8E710BD024403469342A6
:107B380002D003F8011BFAE77047C9B2034610F8F0
:107B4800012B1AB19142F9D11846704700290CBF90
:107B5800184600207047034611F8012B03F8012B43
:107B6800002AF9D170470000024B0146186800F05E
:107B780003B800BF58D6032070B5064608460C4621
:107B880000F00DF8451C29463046FDF7A5FD0646D0
:107B980018B12A462146FFF7BDFF304670BD03469F
:107BA80013F8012B002AFBD1181A0138704730B599
:107BB80082B1451E013915F8013F11F8014FA34262
:107BC80006D1EC431444E04201D0002BF3D11C460B
:107BD800181B30BD104630BD10B5034642B111F830
:107BE800014B03F8014B013A002CF7D11A4400E08D
:107BF80010BD934202D003F8014BFAE710BDF0B56F
:107C0800037863B90B78002B18BF0020F0BD15F876
:107C1800012F62B114F8017F97423046F7D003462E
:107C2800461C007810B14D1E5C1EF0E7F0BD1846EA
:107C3800F0BD70B504460D4645EC104B164601F0F4
:107C480093FC51EC100B7EB1C5F30A53C3F16B03DF
:107C5800002B09DD1B0503F17F55002405F54015B0
:107C680022462B46FFF7F0FB70BD00000000000025
:107C78002DE9F04F9DB0002302900C461392189303
:107C88004FF0000A4FF0000B1791179B1A780D2A36
:107C980005D8092A13D2002A00F0AC8112E02B2A59
:107CA80004D02D2A04D0202A0CD108E0002200E0BC
:107CB80001220C925A1C17925B782BB99AE1013376
:107CC8001793E2E700230C93179D2B78302B5CD198
:107CD8006B78582B01D0782B4CD10C9B019318ABA7
:107CE8000093A94A029819AB17A900F0A4FE10F056
:107CF8000706044600F08785062E05D101350023C6
:107D080017950C9300F07FBD189A3AB135211AA83F
:107D180001F017FD1899029801F094F9062E22D85F
:107D2800DFE806F0040D08181D0D04004FF0000BE5
:107D3800DA4618E0DDF868A0DDF86CB013E01B9BAC
:107D4800199ADDF868A023F4801302F2334243EA5B
:107D5800025B08E0DFF834B24FF0000A03E06FF08E
:107D6800004B4FF0FF3A210740F14D854BF0004B97
:107D780000F049BD179B5A1C17925B78302BF9D03D
:107D8800002B00F04085012300E000234FF000089D
:107D98000693179B0793CDF81480CDF810800A221C
:107DA800179D2E78A6F13003D9B209290ED8049967
:107DB8000829DDBF059902FB0133059302FB08384A
:107DC800049B0135013304931795E9E70298FFF7FF
:107DD8009DFE07680298FFF799FE0068FFF7DFFE2F
:107DE800394602462846FFF7E2FE074628B100203A
:107DF8003346049D0246014657E00298FFF786FE87
:107E08000068FFF7CCFE179B1A181792049A1B5CA0
:107E1800002A42D11046302B05D1179B5A1C1792C5
:107E280001305B78F7E7A3F13102082A43D8179AA3
:107E38000792024600200546303B00F1010126D09A
:107E48000A4405EB000C29460A2661450ED001318B
:107E580001F1FF3EBEF1080F03DC059F774305974C
:107E6800F3E71029D8BF06FB08F8EEE728440828EE
:107E780000F1010505DC05980A2101FB0033059393
:107E880004E0102DDCBF0A2101FB08380021179BF4
:107E9800581C17905B78084602E0049D38463A461D
:107EA800A3F130010929C7D90121652B01D0452B40
:107EB80051D16DB904E0652B40F0B3840022012153
:107EC80028B9069B002B00F09580054600E00025A8
:107ED800179C631C179363782B2B06D02D2B02D08D
:107EE8000026039606E0012300E000230393A31C69
:107EF8001793A378A3F13006092E2BD8302B04D181
:107F0800179B5E1C17965B78F8E7A3F13106082EDD
:107F180021D8A3F1300E179B4FF00A0C1F46179B70
:107F28005E1C17965B78A3F13009B9F1090F04D8E4
:107F38000CFB0E3EAEF1300EF1E7F61B082E44F6B0
:107F48001F6902DCF145A8BFF146039E2EB1C9F1B5
:107F5800000902E017944FF00009002D53D10028C2
:107F680040F05184069A002A40F04D84002941D1FE
:107F78004E2B20D002DC492B0AD03BE0692B07D0DE
:107F88006E2B18D036E000BF4C9D0D000000F07F2E
:107F9800A84917A800F080FF60B3179BA649013BCA
:107FA80017A8179300F078FF10B9179B01331793A0
:107FB800DFF8A0B21AE0A14917A800F06DFFC8B118
:107FC800179B1B78282B0FD11AAA9D4917A800F0D8
:107FD80076FF052808D11B9BDDF868A043F0FF4B0E
:107FE8004BF4E00B00F00FBCDFF86CB24FF0000A66
:107FF80000F009BC139B1794002B00F00F8400239A
:108008000C9300F002BC049B0598002B08BF2B467C
:10801800102D2C46C2EB0909A8BF10240493FFF7C2
:108028009DF9092C82468B4613DD864B03EBC4036E
:1080380053E91223FFF708FA064640460F46FFF7B2
:108048008DF902460B4630463946FFF74BF8824613
:108058008B460F2D36DCB9F1000F00F0D48324DDF8
:10806800B9F1160F07DC774D05EBC90952465B4697
:10807800D9E9000114E0C5F12503994522DC714CCA
:10808800C5F10F0504EBC501C5EB090552465B4672
:10809800D1E9000104EBC504FFF7D6F9D4E90023C0
:1080A800FFF7D2F982468B46ADE319F1160F09DBCB
:1080B800644DA5EBC909D9E9002350465946FFF795
:1080C800EDFAEFE72C1B4C44002C57DD14F00F01A0
:1080D8000AD05C4B03EBC10152465B46D1E9000173
:1080E800FFF7B2F982468B4634F00F0400F0B880EF
:1080F800B4F59A7F0BDD0024254605940494029A72
:10810800DFF850B1222313604FF0000A87E14E4E8A
:10811800002324115046594698463746012C0BDD5A
:10812800E20704D5D6E90023FFF78EF9012308F109
:10813800010864100836F1E70BB182468B46ABF1B3
:10814800547B07EBC80752465B46D7E90001FFF7A7
:108158007BF921F000438B460A461B0D3B491B0562
:108168008B428246C7D8A1F580118B4286BFDFF8C3
:10817800ECB04FF0FF3A02F1547B71E070D06442EA
:1081880014F00F020AD02F4B03EBC2035046594696
:10819800D3E90023FFF782FA82468B4624115FD089
:1081A8001F2C04DD002425460594049430E114F0C6
:1081B800100F0CBF00236A23254E039350465946DF
:1081C8000023002C09DDE20704D5D6E90023FFF7D8
:1081D8003BF9012364100836F3E70BB182468B465E
:1081E800039BEBB1CBF30A53C3F16B03002B594646
:1081F80016DD1F2B0EDD342BDEBF203B4FF0FF3288
:1082080002FA03F34FF0000ACCBF4FF05C7B03EA9D
:10821800010B05E04FF0FF3202FA03F303EA0A0A02
:108228000022002350465946FFF776FB0028B9D1B3
:1082380018E000BF749D0D00779D0D007D9D0D0019
:10824800609D0D00A89D0D00709E0D000000A07C93
:10825800809D0D000000F07F0000F8FFFFFFEF7F1A
:1082680000230393059B0093049A079902982B46D1
:1082780000F03AFF059000283FF43DAFB9F1000F38
:10828800C9F10003A8BF00230D93002429EAE9736C
:1082980012932546059B0298596800F09EFE0490AB
:1082A80000283FF42CAF059B1A69023203F10C0138
:1082B80092000C30FFF72EFC1AAA19A94BEC10AB50
:1082C8000298CDE908AB01F0C4F9189000283FF4F2
:1082D80016AF0121029800F092FF054600283FF4EE
:1082E8000EAF199B03991A9E002BADBF0D9A129AD7
:1082F800DDF8348002EB0308B8BFD21AA3EB010300
:108308003344B549A8BF129A013B8B42C6F13606E1
:1083180080F28A80C91A1F29C8BFB04F4FF00109DF
:10832800D4BF09FA01F3FF1AA6EB0106D9BF0693D9
:10833800002709FA07F7CDF8189008EB0609039B00
:10834800C84516441E444346A8BF4B46B342A8BF7F
:108358003346002BC2BFC3EB0909F61AC3EB080862
:108368000D9B002B64D1B9F1000F7ADC129B002B16
:1083780040F08180002E00F38880B8F1000F00F3F0
:108388008E80049A1899029801F08FF80446002804
:108398003FF4B5AEC36807930023C360294601F0D4
:1083A80068F8002880F28980079B002B40F004823F
:1083B800BAF1000F40F00082CBF31303002B40F01A
:1083C800FB812BF000431B0D1B05B3F1D66F40F268
:1083D800F3816369002B6CD021460122029800F0DA
:1083E800F7FF2946044601F044F8002840F3E481E9
:1083F8002BF00043039A1B0D1B05002A00F08C800C
:10840800B3F1D66F00F38880B3F15C7F00F3D681B7
:10841800029A22234FF0000A4FF0000B1360059BCD
:10842800002B40F0DC81EEE101230027069384E76E
:1084380029461A46029800F07DFF054600283FF4B9
:108448005EAE0146189A029800F0E2FE07900028F6
:108458003FF455AE1899029800F0F4FD079B189365
:1084680081E74A461899029800F0B2FF1890002850
:108478007FF47CAF43E6129A0499029800F05AFF01
:10848800049000287FF476AF39E6324604990298C2
:1084980000F09EFF049000287FF46FAF2FE6294676
:1084A8004246029800F094FF054600287FF469AF21
:1084B80025E62369012B8FDC7EE161D1079ACBF396
:1084C800130322B346498B425A462ED1039B514689
:1084D80063B1444B1340B3F1D46F07D81B0DC3F1FC
:1084E8006B034FF0FF3000FA03F301E04FF0FF3366
:1084F8008B421AD13C498A4202D101333FF4FFAD85
:10850800384B134003F5801B4FF0000A54E163B960
:10851800BAF1000F09D16BE7A3F580136FEA135B7B
:108528006FEA0B5B4FF0FF3A46E117B117EA0B0F02
:1085380002E0069B13EA0A0F00F03E81079B039AAC
:108548005046594653B1FFF774FB02460B46DDE926
:108558000801FEF7C7FD82468B462DE1FFF769FB50
:1085680002460B46DDE90801FEF7BAFD00220023AA
:1085780082468B46FFF7D0F900287FF449AF1BE10C
:108588002946204601F0B3F857EC106B00224FF053
:10859800804310EE100A3946FFF7D2F9002842D07E
:1085A800079B23B14FF00008DFF8409011E0BAF1C3
:1085B800000F03D1CBF313033BB91BE0BAF1010F52
:1085C80003D1BBF1000F3FF423AFDFF824904FF045
:1085D80000080026054F39E002FCFFFFE2FBFFFF21
:1085E800FFFF0F000000F07FFFFFEF7F0000F03F6C
:1085F8000000F0BF0022984B30463946FFF796F945
:1086080040B9304639460022944BFEF71DFF064616
:108618000F4601E0914F002607F100431496159389
:10862800DDE9148912E08D4B304639460022FEF709
:108638000BFF079B06460F4623B901F100430E9036
:108648000F9301E0CDE90E67DDE90E892BF00043B9
:108658001B0D1B050693069A814B9A422BD1DDE927
:108668000823ABF1547B4BEC10ABCDE90A2300F0A7
:108678007BFF404653EC102B4946FEF7E5FE524679
:108688005B46FEF72FFD21F000431B0D754A1B05C5
:10869800934282460CD9744B0B9A9A4203D10A9B97
:1086A80001333FF42CADDFF8C0B14FF0FF3A72E070
:1086B80001F1547B38E0039B33B3069BB3F1D46FCD
:1086C80022D85DA3D3E9002330463946FFF738F9AD
:1086D800A8B139463046FFF78FF9002808BF0120B6
:1086E800FEF73CFE079B06460F4623B901F10043FF
:1086F8001090119301E0CDE91067DDE91089069A21
:1087080009F1D663C2EB03099DED080B00F02CFFBD
:10871800404653EC102B4946FEF796FEDDE9082348
:10872800FEF7E0FC82468B46039BA3BB2BF000437D
:108738001B0D069A1B059A42D8462CD1394630465D
:10874800FFF732F9FEF71AFE0B4602463946304665
:10875800FEF7C6FC079B06460F462BB9BAF1000F79
:1087680002D1CBF3130383B135A3D3E900233046F9
:108778003946FFF7DBF8002831D133A3D3E90023CA
:1087880030463946FFF7F0F804E031A3D3E9002377
:10879800FFF7CCF818BB1899029800F053FC04991D
:1087A800029800F04FFC2946029800F04BFC214645
:1087B800029800F047FC6DE5039B83B12B4B0B93AC
:1087C80000230A9350465946DDE90A23FEF73CFE8A
:1087D80082468B4619B910B9029A22231360189958
:1087E800029800F02FFC0499029800F02BFC29460F
:1087F800029800F027FC0599029800F023FC214616
:10880800029800F01FFC139B13B1139A179B136077
:108818000C9B1BB152460BF1004307E052465B46E6
:1088280004E000252A460121FFF741BB43EC102B49
:108838001DB0BDE8F08F00BF0000C0FFFFFFDF41A3
:108848009535A094FFFFDF3F35E5AF350000E03FE9
:108858009535A094FFFFCF3F0000F03F0000E03FB8
:108868000000E07FFFFF9F7CFFFFEF7F0000503993
:10887800024B0A4601461868FFF7FAB958D6032092
:108888002DE9F04780464048D0F800900F463D4615
:1088980015F8014B09EB0400407800F0080000F0DF
:1088A800FF0608B12F46F2E72D2C03D1BD1C7C78BA
:1088B800012603E02B2C04BF7C78BD1C13B1102BC0
:1088C8000AD15BE0302C57D1287800F0DF00582817
:1088D8004DD16C7810230235002E14BF4FF0004C98
:1088E8006FF0004C0027BCFBF3FA384603FB1ACCA8
:1088F80009EB040E9EF801E01EF0040F01D0303C95
:108908000BE01EF0030E1BD0BEF1010F0CBF4FF0A1
:10891800370E4FF0570ECEEB0404A34210DDB7F12B
:10892800FF3F0AD0504506D801D1644503DC03FB5C
:108938000040012701E04FF0FF3715F8014BD7E75A
:108948007B1C0CD1002E4FF0220314BF4FF00040C7
:108958006FF00040C8F800302AB9BDE8F08706B1CA
:10896800404272B107B1691E1160BDE8F08730243A
:10897800002BB1D10823AFE70A23ADE7302CA3D0F1
:10898800AAE7BDE8F08700BFF4D5032013460A46DE
:10899800014602480068FFF773BF00BF58D603209E
:1089A800F0B506694B11B34200F1140527DA11F04E
:1089B8001F0105EB860605EB830201D1294616E067
:1089C800141D55F82320C1F1200ECA402B46B4428D
:1089D80009D2276807FA0EF73A4343F8042B54F8EC
:1089E800042BCA40F3E71A6052B1043308E0B242DC
:1089F8000B4605D252F8043B41F8043BF7E72B46F7
:108A08005B1B9B10036103B94361F0BDA0F1300308
:108A1800092B01D820380AE0A0F16103052B01D801
:108A2800473804E0A0F14103052B02D82738C0B22B
:108A38007047002070472DE9F04F8BB08A4690466A
:108A480006930290FFF762F8036803931846FFF74E
:108A5800A6F8039B019003444FF0000B13F8013C68
:108A68000793DAF8003002331F4613F8010B302859
:108A780002D10BF1010BF7E7FFF7C8FF0446E0B995
:108A8800019A03993846FFF792F8002834D1019BE0
:108A9800F85CFE18FFF7BAFF80B333461878302821
:108AA8001F4603F10103F9D0FFF7B0FFB0FA80F5D4
:108AB8006D0934464FF0010B01E000252C463A467B
:108AC800164601323078FFF7A1FF0028F8D1019A45
:108AD80003993046FFF76BF850B954B9019BF41865
:108AE8002246164601323078FFF790FF0028F8D169
:108AF80034B1A41BA40003E03E4600E0044601256F
:108B08003378502B01D0702B2AD173782B2B08D0B7
:108B18002D2B03D0711C4FF0000905E04FF001091F
:108B280001E04FF00009B11C0878FFF76FFF431E02
:108B3800DBB2182B14D8A0F1100211F8010FFFF7BF
:108B480065FF431EDBB2182B04D80A2303FB02027D
:108B5800103AF2E7B9F1000F00D05242144400E095
:108B68003146CAF800102DB1BBF1000F14BF002028
:108B780006207CE1F31B013B2946072B02DD01316E
:108B88005B10FAE7029800F028FA019B00F1140A3A
:108B98004FF00009C3F101030546CDF810A0CB46FC
:108BA8000893B7422FD2731E0593079A16F8013C13
:108BB80093420BD0BBF1200F16D1049BC3F8009051
:108BC80004334FF000090493CB460DE0059B089A47
:108BD80013449F42EED81846019A03990993FEF769
:108BE800E6FF099B68B1E5E716F8010CFFF70EFFF1
:108BF80000F00F0000FA0BF0059B49EA00090BF1A1
:108C0800040B1E46CDE7049840F8049BCAEB00000D
:108C1800801028614701484600F0A4FAD8F800609F
:108C2800381AB04226DD871B3946284600F0A3FDD6
:108C3800C8B17B1E591103F01F024FF001095AF801
:108C4800211009FA02F20A420ED04B4502DC4FF01D
:108C5800020909E0B91E284600F08DFD0028F6D06B
:108C68004FF0030900E0814639462846FFF798FE91
:108C78003C440CE009DA371A29463A46029800F0D3
:108C8800A7FBE41B054600F1140A4FF00009D8F8C9
:108C980008309C4208DD0298294600F0D3F9149A5E
:108CA80000231360A320E2E0D8F80400844253DADA
:108CB800041BA6422EDCD8F80C30022B1AD0032B4A
:108CC8001CD0012B1DD1A6421BD1012E0BDC069A0C
:108CD800D8F80430136001232B61CAF80030149BC4
:108CE80062201D60C3E0711E284600F044FD002884
:108CF800EDD106E0159B002BE9D002E0159B002B77
:108D0800E5D10298294600F09DF9149A00231360D2
:108D18005020ACE0671EB9F1000F06D13FB13946CB
:108D2800284600F028FD814601E04FF001097A113C
:108D3800012307F01F0703FA07F75AF822302146E4
:108D48001F42284618BF49F00209361BFFF728FEC4
:108D58000227D8F8044000E00127B9F1000F00F01D
:108D68008180D8F80C30022B0ED0032B10D0012BA9
:108D780076D119F0020F73D0DAF8000049EA000939
:108D880019F0010F07D16BE0159BC3F1010315938F
:108D9800159B002B64D0D5F810A005F114034FEAF9
:108DA8008A0903EB090100201A68B2F1FF3F02D0DB
:108DB80001321A6020E043F8040B9942F4D8AB68FA
:108DC8009A4512DB69680298013100F006F92A69B0
:108DD800023205F10C01834692000C30FEF79AFE30
:108DE8002946029800F02EF95D462B695A1C05EBBE
:108DF80083032A6101225A61022F05F1140211D15D
:108E0800D8F80030013B9E4227D17111012306F0AA
:108E18001F0603FA06F652F821301E420CBF02273D
:108E280001271AE02B699A450ADA01212846FFF73B
:108E3800B7FDD8F8083001349C423FF72CAF0BE05F
:108E480016F01F0608D09144C6F1200659F8040C04
:108E580000F088F9B042E8DB012747F0200701E07D
:108E680047F01007149B1D60069B38461C600BB02A
:108E7800BDE8F08FC2F10802920070B5C2F1200679
:108E88004368056803FA06F42C43D340046040F8AD
:108E9800043F8842F4D370BD30B5036811F8014B24
:108EA80001334CB11A78A2F14105192D98BF20322F
:108EB800A242F3D0002030BD0360012030BD2DE96F
:108EC800F04F0B68D0F800B05E1102EB860613F085
:108ED8001F0385B018BF0436351F17460022824687
:108EE800019346F8042CA8462C46009291461BF89C
:108EF800011F00293CD0084603920291FFF786FD26
:108F0800039A00BB0299202916D8009B9945EEDDEB
:108F1800444505D2072A03DC41462046FFF7AAFF4D
:108F2800BC4223D90023A4F1040844F8043CCDF83A
:108F3800009044461A46DAE7292948D10BF1010383
:108F4800CAF8003014E00132082A09F1010906DDE7
:108F5800BC42CCD9002344F8043C0122043C2168DB
:108F680000F00F0040EA01102060C0E70822BEE7C9
:108F7800B9F1000F2BD0444505D2072A03DC41463E
:108F88002046FFF777FFBC420CD93B4654F8042B28
:108F980043F8042BA542F9D2002243F8042B9D4242
:108FA800FBD20BE0019B4BB1C3F120024FF0FF3322
:108FB800D34056F8042C134046F8043C2B6843B9B8
:108FC800BD4202D101232B6003E0043DF6E70420F3
:108FD80000E0052005B0BDE8F08F70B5456A04468D
:108FE8000E463DB91020FCF74FFB60624560856076
:108FF8000560C560656AEB6843B1636ADB6853F86E
:10900800260078B1026843F8262017E021220421BF
:10901800204600F0D2FB636AE860DB68002BECD1E5
:10902800002070BD012101FA06F56A1D9200204654
:1090380000F0C3FB0028F3D046608560002303617D
:10904800C36070BD70B5446A06460D463CB9102031
:10905800FCF71AFB7062446084600460C4603DB130
:10906800736A6A68DB6853F82210296043F8225053
:1090780070BD2DE9F0410D691F4606460C4601F109
:10908800140E0023DEF8000081B202FB01710F0C00
:10909800000C02FB007089B2013301EB00419D42D4
:1090A8004FEA10474EF8041BECDCD7B1A3689D4289
:1090B80012DB616830460131FFF78FFF2269023207
:1090C80004F10C01804692000C30FEF723FD214686
:1090D8003046FFF7B7FF444604EB850301355F616F
:1090E80025612046BDE8F0812DE9F8430C46154678
:1090F8001F4609220833064693FBF2F3002101229A
:109108009A4202DA52000131FAE73046FFF765FF6A
:10911800089B4361092D4FF00103036111DD04F140
:109128000908C1462C4419F8013B0146303B0A2284
:109138003046FFF79EFFA145F5D108EB0504083C32
:1091480001E00A3409252D1B63199F4208DD14F834
:10915800013B0146303B0A223046FFF78AFFF3E71E
:10916800BDE8F883030C1B0413B90004102300E0C6
:10917800002310F07F4F04BF0002083310F0704F37
:1091880004BF0001043310F0404F04BF80000233D5
:10919800002803DB420003D5581C70471846704767
:1091A80020207047036813F007020BD0D90722D498
:1091B8009A074BBF5B089B08036003604CBF012004
:1091C8000220704799B209B91B0C102213F0FF0F47
:1091D80004BF1B0A0832190704BF1B090432990788
:1091E80004BF9B080232D90702D45B0805D00132BC
:1091F800036010467047002070472020704710B564
:109208000C460121FFF7E9FE01224461026110BD0D
:109218002DE9F74F14460A6923699A42B8BF0B46ED
:109228008846BCBFA0461C46D8F81070D4F81090E9
:10923800D8F80830D8F8041007EB09069E42C8BFD2
:109248000131FFF7CAFE00F1140505EB860C2B4629
:109258000022634502D243F8042BFAE704F1140212
:1092680008F1140102EB890301EB87070093009BC7
:109278000192934257D9B2F800B0BBF1000F23D046
:109288008946AE464FF0000859F8044BBEF800A0D6
:10929800A3B20BFB03A34FEA144ADEF80040434491
:1092A8004FEA14480BFB0A8404EB1344F2469BB2C2
:1092B80043EA04434F454FEA14484AF8043B01D9AE
:1092C800D646E1E7CEF80480019BB3F802A0043249
:1092D800BAF1000F21D02B682C4689464FF00008C0
:1092E800B9F800E0B4F802B00AFB0EBEF044A34699
:1092F8009BB243EA08434BF8043B59F8043BB4F8E3
:1093080004E01B0C0AFB03E303EB18434F454FEA49
:10931800134801D95C46E3E763600435A7E75CF8C6
:10932800043D13B9013E002EF9DC066103B0BDE827
:10933800F08F00002DE9F843154612F003020646A7
:109348000F4607D0013A214C002354F82220FFF79A
:1093580090FE0746AD1036D0746A3CB91020FCF771
:1093680093F97062446084600460C460D6F8248015
:10937800D8F808404CB940F271213046FFF73FFF5A
:109388000023C8F80800044603604FF00008EB0704
:109398000AD5394622463046FFF73AFF3946814614
:1093A8003046FFF74FFE4F466D100CD0206808B1CD
:1093B8000446ECE7224621463046FFF729FF2060A5
:1093C800C0F80080F4E73846BDE8F883989E0D00A1
:1093D8002DE9F0470C464FEA621A26694968A368E6
:1093E800564407469146751CAB4202DA01315B00D0
:1093F800FAE73846FFF7F1FD0023804600F1140133
:109408001A46534503DA41F823200133F9E72AEADB
:10941800EA73206901EB830319F01F0904F11401B1
:1094280001EB800E14D0C9F1200C0022086800FA64
:1094380009F002439A4643F8042B51F8042B8E4551
:1094480022FA0CF2F2D8CAF8042042B1B51C06E0A0
:10945800043B51F8042B43F8042F8E45F9D8013DFD
:109468003846C8F810502146FFF7ECFD4046BDE8E5
:10947800F08703690A699B1A10B511D1920014305C
:10948800143183180A4453F8044D52F8041D8C42D1
:1094980002D007D3012010BD9842F4D3002010BD9C
:1094A800184610BD4FF0FF3010BD2DE9F8430C46AB
:1094B8000746114620461546FFF7DBFF061E08D172
:1094C80031463846FFF789FD012303614661BDE84F
:1094D800F883BCBF23462C4638466168BABF1D4690
:1094E80001260026FFF779FD2B69C660266905F17C
:1094F8001409143404EB860709EB830800F11405FA
:109508004FF0000C54F8043B59F8042B1CFA83F173
:109518001FFA82FE120CCEEB0101C2EB134303EBE0
:10952800214389B24FEA234CC84541EA0343A64682
:1095380045F8043BE6D8BE450ED25EF8041B1CFA7B
:1095480081F2131403EB114392B242EA03424FEA49
:10955800234C45F8042BEEE755F8043D0BB9013EC2
:10956800FAE70661BDE8F883124B10EE902A1A401C
:10957800A2F15073002B02DD0020194617E05B4270
:109588001B15132B4FF000004FF0000104DC4FF4C3
:10959800002242FA03F10AE0143B1E2B4FF00102AD
:1095A800DABFC3F11F0302FA03F31346184641EC6E
:1095B800100B70470000F07FF8B5056900F114063C
:1095C80006EB85052F1F55F8044C2046FFF7CAFD0A
:1095D800C0F120030A280B6014DCC0F10B0E24FA3A
:1095E8000EF1BE4241F07F5334BF55F8081C0021EC
:1095F800153004FA00F021FA0EF143F4401340EA62
:10960800010223E0BE423ABFA5F1080755F8081C3D
:1096180000210B3815D08440C0F1200544F07F5458
:1096280044F44014B74221FA05FE44EA0E038CBF05
:1096380057F8044C002401FA00F0EC4040EA040218
:1096480004E044F07F5343F440130A4643EC102BE4
:10965800F8BD2DE9F7430E46012159EC108B15464C
:10966800FFF7BBFCC9F30A540746C9F313030CB14F
:1096780043F480130193B8F1000F19D002A840F801
:10968800088DFFF78FFD009B48B1019AC0F12001BA
:1096980002FA01F10B43C2407B61019200E07B6159
:1096A800019BBB61002B14BF02210121396107E036
:1096B80001A8FFF777FD019B7B610121396120300B
:1096C80034B1A4F2334404443460C0F1350009E0F5
:1096D80007EB8103A0F2324030601869FFF742FDC2
:1096E800C0EB41102860384603B0BDE8F0832DE98F
:1096F800F743884669468146FFF75EFF01A9404661
:1097080055EC104BFFF758FFD9F81030D8F8102057
:109718009A1A9DE80A00C91A57EC106B01EB42131C
:10972800002BCCBF05EB0355A7EB035732463B464E
:1097380020462946FDF7B2FF41EC100B03B0BDE807
:10974800F083013910B549111469013102F114038C
:1097580000EB810103EB8404A342024604D253F8D0
:10976800042B40F8042BF7E700238A4202D242F880
:10977800043BFAE710BD00F1140200694B1198424E
:1097880010B50CDB0CDD11F01F0109D052F8234095
:1097980024FA01F000FA01F18C420CD100E00346F2
:1097A80002EB8303934204D953F8041D0029F9D02E
:1097B80001E0002010BD012010BD38B502FB01F406
:1097C8002146FBF789FF054618B122460021FEF71E
:1097D800ACF9284638BD00001D400D0059400D0069
:1097E80085400D0089400D000000000024475047C7
:1097F80047410024474E47474100244750524D43B4
:109808000024474E524D430024504D544B313835B7
:109818002C302A32320024504D544B3030312C3108
:1098280038352C332A33430024504D544B313835C6
:109838002C312A32330024504D544B3138332A33DB
:10984800380024504D544B4C4F470024504D544B36
:109858003136312C302A32380024504D544B3031B7
:10986800302C3030322A32440025662C25660024FC
:10987800504D544B3331342C302C312C302C312C6E
:10988800302C302C302C302C302C302C302C302CF0
:10989800302C302C302C302C302C302C302A3238D4
:1098A8000024504D544B3232302C313030302A3174
:1098B8004600245047434D442C33332C302A364439
:1098C800004C4953334448000000000000000000E9
:1098D800BF480D00254A0D00BD480D00DF4E0D00A4
:1098E8006D4A0D00763A00252E3266002C633A0048
:1098F8004200746D6F646500626174740067707310
:1099080000677073206C69737400726573657420E6
:109918006C6F6700000000000000000001570D0098
:109928000B570D0015570D001F570D0029570D0037
:1099380035570D0041570D004D570D0055570D0077
:109948005F570D0069570D0000000000000000007F
:109958005F580D0055580D004B580D0041580D002B
:1099680035580D0029580D001D580D0015580D00CB
:109978000B580D0001580D0069570D00000000003C
:109988000000000035590D0037590D000008101867
:109998002028303800000000000000002D5A0D007B
:1099A800775A0D004F5A0D002F5A0D00575A0D00C7
:1099B8005F5A0D00675A0D006F5A0D000000000035
:1099C80000000000275B0D006B5B0D00455B0D0080
:1099D80071650D003F5B0D00295B0D00315B0D00CB
:1099E800655B0D00395B0D00235B0D000000000076
:1099F80000000000135C0D00055C0D00075C0D0005
:109A08000000000000000000E95C0D00EF5C0D00A4
:109A1800175D0D00FB5C0D00EB5C0D000000000005
:109A280000000000DB640D00D1640D00C7640D0068
:109A38007D640D00BB640D00AF640D00A3640D00D0
:109A48009B640D0091640D0087640D0069570D003B
:109A58005A00252B3033643A253032750025592DAC
:109A6800256D2D25645425483A254D3A2553257AE8
:109A78000061736374696D65006C6E00666E0063E7
:109A88006F64650064657461696C000D0A002530B7
:109A980031307520005D20002564002C2000282925
:109AA8003A2000205B00636F6465203D2000256933
:109AB8000064657461696C73203D2000626175649F
:109AC8000053657269616C0053657269616C31009D
